:020000040800F2
:100000000000012089050008D9050008D90500086D
:10001000D9050008D9050008D9050008000000002E
:10002000000000000000000000000000D9050008EA
:10003000D905000800000000D9050008D90500080E
:10004000D9050008D9050008D9050008D905000818
:10005000D9050008D9050008D9050008D905000808
:10006000D9050008D9050008D9050008D9050008F8
:10007000D9050008D9050008D9050008D9050008E8
:10008000D9050008D9050008D905000800000000BE
:10009000000000000000000000000000D90500087A
:1000A000D9050008D9050008D9050008D9050008B8
:1000B000D9050008D9050008D9050008D9050008A8
:1000C000D9050008D9050008D9050008D905000898
:1000D000D905000805050008D90500080000000042
:1000E000D9050008D9050008D9050008000000005E
:1000F000000000000000000000000000D90500081A
:1001000000000000D9050008D9050008D90500083D
:1001100000000000000000000000000000000000DF
:10012000D9050008D9050008D9050008D905000837
:10013000D9050008000000000000000000000000D9
:10014000000000000000000000000000D9050008C9
:10015000D9050008D9050008D9050008D905000807
:10016000D9050008D90500080000000000000000C3
:10017000000000000000000000000000000000007F
:1001800000000000D9050008000000000000000089
:04019000D905000885
:1001940010B5054C237833B9044B13B10448AFF3BD
:1001A40000800123237010BD040000200000000023
:1001B4002406000808B5034B1BB103490348AFF3F9
:1001C400008008BD0000000008000020240600088C
:1001D40000B52348234E244D85B000F049F820484B
:1001E400052100F091F81E48042100F08DF81C4808
:1001F4000022052100F0ACF800220421184800F088
:10020400A7F800244FF4E13301A8CDE90134ADF897
:100214000C4000F0ADF814480A2100F075F82246AD
:1002240011480A2100F094F804F1804404F50134E3
:100234001421304600F060F90521204600F090F8C2
:100244000421204600F08CF80A21284600F088F8A2
:10025400064B00BF1A46013B002AFAD1E8E700BF6B
:10026400000402403C06000800000240FF69180038
:100274001E4B98421CD01E4B984211D01D4B9842E5
:1002840024D01D4B984229D01C4B984218D01C4BAB
:1002940098420AD11B4A136B43F08003136304E0B2
:1002A400184A136B43F002031363164B1B6B70471E
:1002B400144A136B43F001031363124B1B6B704717
:1002C400104A136B43F010031363EEE70D4A136BEC
:1002D40043F0040313630B4B1B6B7047094A136B06
:1002E40043F008031363074B1B6B70470000024085
:1002F4000004024000080240000C024000100240CA
:10030400001C024000380240026800B503234FEA93
:10031400410E03FA0EF34FF0010C22EA03020CFA29
:1003240001F10CFA0EFC42EA0C020260426822EA75
:10033400010141608268022122EA030201FA0EF1FE
:100344000A438260C26822EA0303C3605DF804FBC7
:1003540002B91031012303FA01F18161704700BF32
:100364004269012303FA01F151404161704700BF22
:1003740070B4002859D08288C388056800891A435C
:1003840042F0080292B22B492B4E0B6B43F001034F
:100394000B634B6C43F010034B64284B1C6824F430
:1003A40040241C601C6844F400241C605C6824F431
:1003B40000745C609C6844F440249C60DC6824F411
:1003C4004024DC605C6A24F0F0045C625C6A44F003
:1003D40070045C62F3681A4C23F40053F360194E02
:1003E4000023338023807DB9134B1749DA6000243E
:1003F400202218615C61C1F884214A60DA6842F401
:10040400005270BCDA6070478C68104B610B240496
:100414001B6803D501F007010339CB40064903EB00
:100424005503B3FBF5F58D60DEE708224FF416554E
:10043400A9E700BF0038024000100140000002405C
:10044400A2000020A000002000E100E00000002045
:1004540011B310B370B500F1FF3C134C134D144E9F
:10046400002009E022881CF801EF92B20130814299
:1004740006F802E0238009D023882A8801339BB23E
:10048400802B28BF002392B29A42EBD1094AD36849
:1004940043F08003D36070BD0846064AD36843F036
:1004A4008003D360704700BFA0000020A20000209A
:1004B400200000200010014070B549B106460D46E9
:1004C4000024291B3019FFF7C3FF0444A542F8D8C0
:1004D40006480749074C02880B8892B29BB29A429D
:1004E400F9D123685B06F6D570BD00BFA0000020DB
:1004F400A20000200010014008B1FFF7DDBF7047E3
:10050400174A1368180620D5D16809061DD5154960
:1005140010B4154C0888218880B289B2884219D059
:100524002188124889B2415CC9B2516022880132E3
:1005340092B2802A28BF002222801A0718BF084BD3
:100544005DF8044B18BF5B6870471B071CBF044B66
:100554005B687047D16821F08001D160EDE700BF8E
:1005640000100140A0000020A20000202000002074
:10057400034AD2F8883043F47003C2F888307047D5
:1005840000ED00E0DFF834D0FFF7F2FF0C480D492E
:100594000D4A002302E0D458C4500433C4188C42DA
:1005A400F9D30A4A0A4C002301E013600432A24240
:1005B400FBD300F011F8FFF70BFE70470000012099
:1005C40000000020040000205C0600080400002055
:1005D400A4000020FEE7000070B50D4D0D4C641B17
:1005E400A4100026A64209D10B4D0C4C00F018F8BB
:1005F400641BA4100026A64205D170BD55F8043B27
:1006040098470136EEE755F8043B98470136F2E780
:10061400540600085406000854060008580600084A
:10062400F8B500BFF8BC08BC9E467047F8B500BFDB
:08063400F8BC08BC9E467047AB
:10063C0048656C6C6F2046726F6D20535445564163
:08064C004C200D0A0000000023
:04065400B9010008E0
:040658009501000800
:04065C000024F40082
:040000050800058961
:00000001FF
