:020000040800F2
:1000000000000120DD0900082D0A00082D0A000863
:100010002D0A00082D0A00082D0A00080000000023
:100020000000000000000000000000002D0A000891
:100030002D0A0008000000002D0A00082D0A000803
:100040002D0A00082D0A00082D0A00082D0A0008B4
:100050002D0A00082D0A00082D0A00082D0A0008A4
:100060002D0A00082D0A00082D0A00082D0A000894
:100070002D0A00082D0A00082D0A00082D0A000884
:100080002D0A00082D0A00082D0A000800000000B3
:100090000000000000000000000000002D0A000821
:1000A0002D0A00082D0A00082D0A00082D0A000854
:1000B0002D0A00082D0A00082D0A00082D0A000844
:1000C0002D0A00082D0A00082D0A00082D0A000834
:1000D0002D0A0008C90700082D0A000800000000CA
:1000E0002D0A00082D0A00082D0A00080000000053
:1000F0000000000000000000000000002D0A0008C1
:10010000000000002D0A00082D0A00082D0A000832
:1001100000000000000000000000000000000000DF
:100120002D0A00082D0A00082D0A00082D0A0008D3
:100130002D0A000800000000000000000000000080
:100140000000000000000000000000002D0A000870
:100150002D0A00082D0A00082D0A00082D0A0008A3
:100160002D0A00082D0A0008000000000000000011
:10017000000000000000000000000000000000007F
:10018000000000002D0A0008000000000000000030
:040190002D0A00082C
:1001940010B5054C237833B9044B13B10448AFF3BD
:1001A40000800123237010BD040000200000000023
:1001B400780A000808B5034B1BB103490348AFF3A1
:1001C400008008BD0000000008000020780A000834
:1001D40030B5B0F1000C85B009DB44D130238DF883
:1001E40000300121684600F0E9FA05B030BD2D2346
:1001F4008DF80030CCF1000C012168464C1E1B4DDB
:100204000444A5FB0C23DB0803EB83029E46ACEB02
:10021400420330330A4604F8013F0131F446BEF18B
:10022400000FEED10029DED09DF80030A3F12D039C
:10023400B3FA83F35B0903EB51049C42D3D9013B2A
:100244000DF1FF35034402442C4413F801CF92F816
:1002540000E083F800E09C4202F801C9F5D100F007
:10026400ADFA05B030BD0021C7E700BFCDCCCCCC82
:100274002DE9F04F9A489B4D89B000F057F9984802
:10028400052100F09FF99648042100F09BF9944859
:100294000022052100F0BAF904219148002200F05F
:1002A400B5F900234FF4E13205A8CDE90523ADF8F3
:1002B4001C3000F0BBF900F0BDFA1C218A4800F0A4
:1002C4007DFA0F2000F008FB0D210446874800F05A
:1002D40075FAC4F3071204F00F03AA5CEB5C8DF803
:1002E4000820022102A88DF8093000F067FA80483E
:1002F400022100F063FAB12C13D07E48784C3521EA
:1003040000F05CFA0521204600F088F9042120461B
:1003140000F084F9784B00BF1A46013B002AFAD159
:10032400F0E71021084600F019FB7448DFF8C0A17B
:10033400DFF8AC91222100F041FA282000F0CCFA39
:100344008346292000F0C8FA80462A2000F0C4FA27
:100354004FEA082646EA004646EA0B0632020446FD
:100364004FF007016648374648BF46F07F4700F024
:1003740025FACBF307130BF00F0BEB5C8DF8083069
:10038400022115F80B308DF8093002A800F016FA96
:100394005C48082100F012FAC8F3071308F00F08AC
:1003A400EB5C8DF80830022115F808308DF809301F
:1003B40002A800F003FA5448082100F0FFF9C4F33E
:1003C400071304F00F04EB5C8DF8083002212B5D59
:1003D4008DF8093002A800F0F1F90221504600F02E
:1003E400EDF94A48062100F0E9F9494B1B68ADF8DC
:1003F400083002211B0C02A88DF80A3000F0DEF947
:1004040014244FF0300826FA04F303F00F03043CDD
:10041400EB5C8DF80130022168468DF8008000F015
:10042400CDF9231DEFD10221504600F0C7F9394A16
:1004340007CA02AB03C323F8022B120C1A70364B03
:1004440093E80300ADF80410090C00908DF8061031
:1004540002A80A2100F0B2F9002F27DB3E134FF463
:100464007A73C7F30B0703FB07F73C133046FFF718
:10047400AFFE2A48012100F0A1F9B7F5C82F23DB0C
:100484002046FFF7A5FE0621684600F097F90521EE
:10049400484600F0C3F80421484600F0BFF8204B5A
:1004A40000BF1A46013B002AFAD146E77F423E13B9
:1004B4004FF47A73C7F30B0703FB07F719480121BD
:1004C4003C1300F07BF9D1E71748012100F076F9DD
:1004D400B7F5204FD4DA1448012100F06FF9CFE7C3
:1004E40000040240640B0008900A0008AC0A0008EB
:1004F400600B0008BC0A0008FF117A00F40A000827
:10050400180B0008200B00082C0B0008380B0008FF
:100514004C0B0008500B00085C0B0008440B00084F
:10052400FF083D00400B0008480B00081E4B984292
:100534001CD01E4B984211D01D4B984224D01D4B09
:10054400984229D01C4B984218D01C4B98420AD18F
:100554001B4A136B43F08003136304E0184A136BC4
:1005640043F002031363164B1B6B7047144A136B5F
:1005740043F001031363124B1B6B7047104A136B58
:1005840043F010031363EEE70D4A136B43F00403C7
:1005940013630B4B1B6B7047094A136B43F008033F
:1005A4001363074B1B6B70470000024000040240BA
:1005B40000080240000C024000100240001C0240EF
:1005C40000380240026800B503234FEA410E03FAE3
:1005D4000EF34FF0010C22EA03020CFA01F10CFABB
:1005E4000EFC42EA0C020260426822EA0101416008
:1005F4008268022122EA030201FA0EF10A438260B0
:10060400C26822EA0303C3605DF804FB02B9103137
:10061400012303FA01F18161704700BF426901239C
:1006240003FA01F151404161704700BF70B40028E2
:100634005DD08288C388056800891A4342F00C02A1
:1006440092B22D492D4E0B6B43F001030B634B6C9F
:1006540043F010034B642A4B1C6824F470141C6090
:100664001C6844F420141C605C6824F4C0645C605E
:100674009C6844F470149C60DC6824F47014DC609E
:10068400DC6844F48014DC605C6A24F47F645C629B
:100694005C6A44F4EE645C62F3681A4C23F400531D
:1006A400F360194E0023338023807DB9134B17491F
:1006B400DA600024202218615C61C1F884214A6058
:1006C400DA6842F4005270BCDA6070478C68104BF0
:1006D400610B24041B6803D501F007010339CB40E7
:1006E400064903EB5503B3FBF5F58D60DEE70C22F9
:1006F4004FF41655A5E700BF003802400010014032
:1007040000000240A2000020A000002000E100E060
:100714000000002011B310B370B500F1FF3C134C7E
:10072400134D144E002009E022881CF801EF92B208
:100734000130814206F802E0238009D023882A8808
:1007440001339BB2802B28BF002392B29A42EBD193
:10075400094AD36843F08003D36070BD0846064A53
:10076400D36843F08003D360704700BFA00000202B
:10077400A2000020200000200010014070B549B103
:1007840006460D460024291B3019FFF7C3FF044415
:10079400A542F8D806480749074C02880B8892B24C
:1007A4009BB29A42F9D123685B06F6D570BD00BFAF
:1007B400A0000020A20000200010014008B1FFF7B3
:1007C400DDBF7047174A1368180620D5D16809069B
:1007D4001DD5154910B4154C0888218880B289B2FA
:1007E400884219D02188124889B2415CC9B251604B
:1007F4002288013292B2802A28BF002222801A075E
:1008040018BF084B5DF8044B18BF5B6870471B07A3
:100814001CBF044B5B687047D16821F08001D16034
:10082400EDE700BF00100140A0000020A20000205E
:1008340020000020244A254B106B254940F002007B
:1008440010B51063146B44F004041463146C44F482
:1008540080441464126C1A6822F04C421A601A68BC
:1008640042F008421A605A6822F420425A609A6898
:1008740042F008429A60DA6822F04C42DA605A6A1E
:1008840022F0704222F470025A625A6A42F0A04284
:1008940042F4A00248F21C3000245A6208604C6002
:1008A4000B680C4843F4804343F040030B60FFF7AC
:1008B4003DFE08480D21FFF785FEBDE810400548C0
:1008C40001220D21FFF7A2BE0038024000040240BD
:1008D400003800400008024010B50D2104460022F3
:1008E4001C48FFF793FE1C490B6823F040030B6080
:1008F4000B6843F480430B600B6843F0400344F0FF
:1009040080040B608B689807FCD5134ACC6093680D
:10091400D907FCD5D36813680F4923F0400313604B
:10092400136823F480431360136843F04003136097
:100934008B689A07FCD50023074ACB609368DB07D2
:10094400FCD5D468034801220D21FFF75FFEE0B215
:1009540010BD00BF000802400038004070B50022FE
:1009640006460D4615480D21FFF750FE144A13683C
:1009740023F040031360136843F480431360136847
:1009840043F04003136093689807FCD50C4CD66081
:10099400A368D907FCD5E368094883689A07FCD59E
:1009A400074AC5609368DB07FCD5D3680348BDE8F4
:1009B400704001220D21FFF729BE00BF000802404C
:1009C40000380040034AD2F8883043F47003C2F878
:1009D4008830704700ED00E0DFF834D0FFF7F2FF15
:1009E4000C480D490D4A002302E0D458C450043386
:1009F400C4188C42F9D30A4A0A4C002301E013605C
:100A04000432A242FBD300F011F8FFF731FC704727
:100A1400000001200000002004000020800B0008DA
:100A240004000020A4000020FEE7000070B50D4D76
:100A34000D4C641BA4100026A64209D10B4D0C4C8E
:100A440000F018F8641BA4100026A64205D170BD5E
:100A540055F8043B98470136EEE755F8043B9847B0
:100A64000136F2E7780B0008780B0008780B0008D1
:100A74007C0B0008F8B500BFF8BC08BC9E46704764
:0C0A8400F8B500BFF8BC08BC9E467047E7
:100A90005350492070726573737572652064656D7B
:100AA0006F20737461727465640D0A0057484F5F5C
:100AB000414D5F49203D20307800000057484F5F8E
:100AC000414D5F49206D69736D617463683A2073AD
:100AD000656E736F72206E6F7420726573706F6EC7
:100AE00064696E6720636F72726563746C790D0A56
:100AF000000000004354524C5F524547312073655B
:100B00007420746F203078313020284F44523D31AA
:100B1000487A290D0A000000584C203D203078000A
:100B200020204C203D20307800000000202048206C
:100B30003D20307800000000524157203D20000049
:100B40002D0000002E000000300000003078000072
:100B500050726573737572653A20000020685061A9
:100B60000D0A0000303132333435363738394142DE
:080B700043444546000000006B
:040B7800B9010008B7
:040B7C0095010008D7
:040B80000024F40059
:04000005080009DD09
:00000001FF
